:020000040000FA
:020000000528D1
:08000800090003178316013003
:100010008801023089010313FF3085000830860013
:10002000013087002030810084309F0083128B13C1
:1000300006110E308700D701D601EB01EC018A15BD
:1000400007278A11B3240615C124061B29288A15FF
:100050000028861A2D288A15162AE0244530D8242F
:100060007330D8247230D824061B3B285C24B32478
:100070005714061F2D28861A42285C24B324D7174C
:10008000861E2D28571C4628D71B9426861F2D28F0
:100090000430F024EA000030F024E9000230F024BB
:1000A000E8001430F024E0001030F024DF000C30C1
:1000B000F024DE007310F31057185F28D71B612857
:1000C000861A64280A16002857186B28D71B6B2835
:1000D000061B6C2856146D285610D71B9E255718E2
:1000E000182556184D26EC0F7D28EB0A02306B02BE
:1000F000031D7D288A157B268A11B324B324561844
:10010000862857188628D71B8628861B89288A1593
:1001100000280E30870083162130870083129C242C
:10012000043087009B244C240E3087004308DA00FB
:100130004208DB0003305A020319A4288316013059
:1001400087008312B324DE28F8245A08A1005B0834
:10015000A0000730A40008250C25E8245230D8243C
:100160007830D8243E30D8243408303ED82435089E
:10017000303ED8243608303ED8240130D8242030F0
:10018000D8243D30D8245330D8246330D82461306B
:10019000D8246E30D8243D30D824EC244330D824E1
:1001A0007830D8243E30D8242D30D8242D30D8248F
:1001B0002D30D8248A15A5268A115A283230C70036
:1001C0006E24EB01EC01F8240E3087009C249C2463
:1001D000083087004C240E3087004308A100D80067
:1001E0004208A000D9000830F024A4000425A30888
:1001F000031DF8242108F6002008F70077241425B1
:1002000080249C24F824083087000A30C300C30BE4
:100210000729000000004C240E3087000330430201
:10022000031999294308DA00A1004208A000DB0065
:100230000830F024A4000425A308031DF824210895
:10024000F8002008F9004D08A4004E08A5004F084A
:10025000A6005008A70014252008CD002108CE00D4
:100260002208CF002308D000C70BE12877240425FB
:10027000A308031DF824892492240425A308031D40
:10028000F82400250530A40008258A158C258A113C
:100290008024F8240330A5006930A4005E08A00083
:1002A000142500257724102500250E30A5001E30CA
:1002B000A40008258A158C258A112108DC00200855
:1002C000DD000A30C7006E249C24F8240830870023
:1002D00081309F000230C300C30B6C290E308700B1
:1002E0009F149F1871291E08A10083161E088312EF
:1002F000A000561C8129861B81292008C2000A30D3
:10030000F42400250A30F024A4000425A308031DCA
:10031000F824772414258024C70B64292108F400CD
:100320002008F50073145717D712571256185A2879
:10033000BE2A8316213087008312A5240830870047
:100340004C240E3087004308D8004208D9009C2472
:10035000083087000B30C300C30BAC29000000003D
:100360004C240E3087004308DA004208DB00831675
:1003700001308700831203305A020319EC29F82454
:100380005A08A1005B08A0005808A5005908A4005D
:100390000425A308031DF82400256530A4001025BA
:1003A0008024F8245808A1005908A0005F08A40080
:1003B000102577240425A308031DF82400252530E3
:1003C000A40008252108DC002008DD005713D716FB
:1003D000571256185A28502A831621308700831244
:1003E0009C24043087004C240E3087004308D8003A
:1003F0004208D9009C24043087000330C300C30B9B
:10040000FF290000000000004C240E308700430844
:10041000DA004208DB0083160130870083120330C4
:100420005A020319402AF8245A08A1005B08A000C8
:100430005808A5005908A4000425A308031DF824A2
:100440000025D230A40010258024F8245808A100EB
:100450005908A0006008A400102577240425A308EB
:10046000031DF82400254730A40008252108DC00DE
:100470002008DD005713D712571656185A28A02AFD
:10048000E8244530D8247330D8247230D8243E3044
:10049000D8242D30D8242D30D8242D30D824A02A8B
:1004A000C930E50083162130870083129C24043074
:1004B00087004C244308E1004208E2000000642A5F
:1004C0009B240000000000000000000000009B24AE
:1004D0000000000000009B244C240230430203185B
:1004E000742AE50F602ABE2A0E3087004308E30015
:1004F0004208E4008316013087008312F82402309A
:10050000A100D230A0006908A40014251A30A4006C
:1005100010250025C8306502A40010258024F82489
:100520006308A1006408A0006108A5006208A40097
:100530000425892492240825D7105715D7116E2B2E
:10054000F8245A08A1005B08A0005808A500590823
:10055000A4000425802400250530A4000425A30858
:10056000031D542BF8240E30A0006A08A4001025A7
:1005700077240825D7105711D7156E2B5530E70073
:100580000130E500E60183162130870083129C24A8
:10059000083087004C244308E1004208E2000000D4
:1005A000D52A000000009B2400000000000000008D
:1005B0009B240000000000009B244C2402304302D6
:1005C0000318F42AE50FD12AE60AE70BE82A3A2BAA
:1005D00043086102031DD72A62084202C4000230A8
:1005E0004402031C542BDC2A0E3087004308E3002E
:1005F0004208E4008316013087008312F8240A3091
:10060000A0006808A400102500250F30A5000030C8
:10061000A400142500256508A4006608A50010257F
:1006200000250430A40008258024F8246308A100D4
:100630006408A0006108A5006208A4000425210840
:10064000C3002008C20000250530A4000425A3082B
:10065000031D542BF8244308A5004208A40092244B
:100660000825F3142108FA002008FB00D7145711BD
:10067000D7116E2B0E30870083160130870083124E
:10068000EC244330D8247830D8243E30D82420308D
:10069000D8242D30D8246D30D8246130D824783037
:1006A000D8242D30D824BA2B0E3087008316013081
:1006B00087008312EC244330D8247830D8243E308D
:1006C000D8242D30D8242D30D8246E30D8246F3043
:1006D000D8242D30D8242D30D824BA2B0C25EC2446
:1006E0004330D8247830D8243E30D824D71CA22BCD
:1006F000013032020318852B013033020318882B96
:100700000130340203188D2B932B3208303ED8244D
:100710003308303ED8242030D8243408303ED82442
:10072000B208031D9D2B3508303ED824B308031DA5
:100730009F2B3608303ED824A12B3030D8243030BF
:10074000D824B62BB3080319A82B3308303ED8247D
:100750003408303ED8242E30D8243508303ED824F2
:10076000B308031DB62B3608303ED8240230D824F7
:100770004630D824F8245C08A1005D08A0000C25B0
:10078000E8245230D8247830D8243E30D824571B5F
:10079000CC2BB3080319CF2B3308303ED824571F76
:1007A000D32B2C30D8243408303ED824D71EDA2B53
:1007B0002C30D8243508303ED824571EE12B2C305D
:1007C000D824D71EE62BB308031DE92B3608303E8C
:1007D000D8240130D824F8240B30A100B830A00070
:1007E0007A08A5007B08A40008258924FC24760843
:1007F000A1007708A0000425A308031DF824002504
:100800000830A4001025F31CF82480240025740867
:10081000A5007508A4000425A3080319122CF824C8
:100820008024142CF401F501F8247608A10077083F
:10083000A0007808A5007908A4000425A308031DDA
:10084000F82400251430A400102577241425002551
:100850007408A5007508A400142500256430A400C0
:1008600010250025EB30A400082585195A28731C93
:100870005A280C252030D8246130D8243308303E43
:10088000D8242C30D8243408303ED8243508303EC3
:10089000D8240130D8245A2881309F000C30C3005E
:1008A000C30B502C9F149F18532C1E08C300831693
:1008B0001E088312C2000800E0242030D8245330E0
:1008C000D8246530D8247230D8247630D8246930C2
:1008D000D8246330D8246530D8240800CD01CE0157
:1008E000CF01D001D201D301D401D50108005208B3
:1008F000A4005308A5005408A6005508A700080046
:100900002008D2002108D3002208D4002308D500F3
:1009100008002008A4002108A5002208A60023083A
:10092000A70008005208A0005308A1005408A20024
:100930005508A300080008002F30BB000630BC009B
:10094000BB0BA02CBC0BA02C0800A830BB00453072
:10095000BC000230BD00BB0BAB2CBC0BAB2CBD0BE9
:10096000AB2C000008005430BB008A30BC000330C0
:10097000BD00BB0BB92CBC0BB92CBD0BB92C0000B6
:10098000080048308A1536278A11C8013830C70058
:1009900007308A00480880278A1521278A11C80A4B
:1009A000C70BCA2C08008A150F250F258A110800CD
:1009B0008A1521278A1108008A1536278A1108000E
:1009C0008A155B278A1108008A1560278A1108009A
:1009D0008A1568278A1108008A156C278A11080071
:1009E0008A159D248A1108008A15A8248A110800F6
:1009F0008A1537268A1108008A153B268A110800B5
:100A00008A152A258A1108008A152F258A110800BF
:100A10008A1553258A1108008A15E4258A110800D1
:100A20008A153C258A1108008A1532258A1108008A
:100A3000D7191E2D57194A2DD718722D861A212D18
:100A4000EA0A061B242DEA03F824E8246A08A00019
:100A50007F30A40004250C253030D8242C30D82435
:100A60003430D8243730D8240230D8243E30D8242B
:100A70002C1C3C2D2D30D8244827861B492DE824DA
:100A80008A15F6248A116A08C2000430F424861FED
:100A9000472D0800861A4D2DE90A061B502DE90343
:100AA000F824E8246908A0007F30A40004250C2560
:100AB0003430D8240230D8243730D8243E30D824DB
:100AC0002C1C642D2D30D8244827861B712DE8243A
:100AD0008A15F6248A116908C2000030F424861FA2
:100AE0006F2D0800861A752DE80A061B782DE8037D
:100AF000F824E8246808A0007F30A40004250C2511
:100B00003130D8243030D8243030D8243030D82474
:100B10000230D8243E30D8242C1C902D2D30D824DF
:100B20004827861B9D2DE8248A15F6248A1168081B
:100B3000C2000230F424861F9B2D0800571BA42DF1
:100B4000D71ACD2D571AF62D861AA72DDE0A061BA9
:100B5000AA2DDE03F824E8245E08A0007F30A4005C
:100B600004250C252030D8243130D8245230D82404
:100B70003E30D8242C1CBE2D2D30D8244827861B6F
:100B8000CB2DE8248A15F6248A115E08C2000C30A9
:100B9000F424861FC92D1F260800861AD02DDF0ACF
:100BA000061BD32DDF03F824E8245F08A00064307F
:100BB000A40004250C252030D8243130D82430302E
:100BC000D8245230D8242C1CE72D2D30D824482787
:100BD000861BF42DE8248A15F6248A115F08C200CA
:100BE0001030F424861FF22D1F260800861AF92DD6
:100BF000E00A061BFC2DE003F824E8246008A000AE
:100C00006430A40004250C252030D8243430D824A6
:100C10003030D8245230D8242C1C102E2D30D8241B
:100C20004827861B1D2EE8248A15F6248A116008A1
:100C3000C2001430F424861F1B2E1F260800F8243F
:100C40005C08A1005D08A0000C25EC242030D8240D
:100C5000571B2D2EB3080319302E3308303ED824ED
:100C6000571F342E2C30D8243408303ED824D71EB9
:100C70003B2E2C30D8243508303ED824571E422E27
:100C80002C30D824D71E472EB308031D4A2E360811
:100C9000303ED8240130D82408005808A100590853
:100CA000A0000C25E8242030D8243408303ED82475
:100CB0003508303ED8243608303ED824571F622EDF
:100CC0002B30D824D71E662E2F30D824571E6A2EDC
:100CD0002D30D8245A08A1005B08A0000C25340848
:100CE000303ED8243508303ED8243608303ED8244B
:100CF000F8240830F024A0000C25EC242030D8245F
:100D00004530D8244530D8243E30D8244827861B87
:100D1000932EE8248A15F6248A115908C200083057
:100D2000F424861F912E080008308700E824203024
:100D3000D8244930D8243D30D8243130D82430301C
:100D4000D8246D30D8244130D824B324861A942E68
:100D500004308700E8242030D8244930D8243D309E
:100D6000D8243230D8242030D8246D30D8244130D3
:100D7000D824D324861EBF2E061F942EA82E0830FA
:100D80008700E8242030D8247330D8246530D82454
:100D90006B30D8243130D8243030D8246D30D8246A
:100DA0004130D824D3248714E8242030D824733049
:100DB000D8246530D8246B30D8242030D824303063
:100DC000D8246D30D8244130D824D324061FA82E2F
:100DD000BF2E0800061FEA2EB324B324B324861ABC
:100DE000F22EED0A061BF52EED03E824F8246D081B
:100DF000A0007F30A40004250C252030D8243130F9
:100E0000D8247030D8243E30D8242C1C092F2D3003
:100E1000D8244827861BEC2EE8248A15F6248A114C
:100E20006D08C2002E30F424861F142F0800061F00
:100E3000172FB324B324B324861A1F2FEE03061BE7
:100E4000222FEE0AE824F8246E08A0007F30A400C8
:100E500004250C252030D8243C30D8244C30D8240C
:100E60003E30D8242C18362F2D30D8244827861B06
:100E7000192FE8248A15F6248A116E08C2002A3038
:100E8000F4246E08C2002930F424861F452F080080
:100E90003408303ED8243508303ED8243608303E59
:0E0EA000D8243C30D8242030D824080000008C
:100F0000820700340E341134113411340A341B3486
:100F10000034003400341234123412341E341134CC
:100F2000103400340E341F341F341F341F341F3468
:100F3000003400340E3411341F341F341F341F3476
:100F4000003400340E34113411341F341F341F3474
:100F5000003400340E341134113411341F341F3472
:100F6000003400340E3411341134113411341F3470
:020F700000344B
:101000000615EB01EC01D70183161F308500831212
:10101000103087008316031706308800850183127D
:1010200003178701A13088003230890089018316B7
:101030000313970183122A309D24EE006527203088
:1010400021274C302127C0240F25EC0F2C28EB0A38
:1010500004306B0203197B26861B2F28162A851D58
:1010600032280F29061B3F280F30C7001C25061BFE
:101070003F28C70B36288A115C2417278A151E249F
:10108000A308031D4D28A208031D4D28043021028A
:1010900003184D286527CB242528EB01EC012A25D0
:1010A0006430A4005325A20803195B282A2556148E
:1010B0006430A40053252308D5002208D400210859
:1010C000D3002008D200861A69281C25861A6928B0
:1010D00042244B30A3007D30A2004130A100A0305B
:1010E000A0002A2524309D24A50025309D24A4009D
:1010F00053250330A500E830A4003C255508A7007F
:101100005408A6005308A5005208A400532521083E
:10111000CC002008CB00561891282A256430A40062
:101120003C25D6012A2528309D24A50029309D2460
:10113000A4002F2565274C30212778302127203027
:101140002127E4252C1CA6282D30212701302D0233
:101150000318F52801302E020318F52801302F025C
:101160000318DD28013030020318E0280130310275
:101170000318E328013032020318C3280130330278
:101180000318C628C9283208303E21273308303ECC
:1011900021273408303E21272C3021273508303EC6
:1011A00021273608303E21272030212702302127F1
:1011B0006B3021274830212725282F08303E212752
:1011C0003008303E21273108303E21272E3021279C
:1011D0003208303E21273308303E21272030212796
:1011E0006D3021274830212725282D08303E212722
:1011F0002E08303E21272C3021272F08303E212772
:101200003008303E2127310820302127483021275F
:10121000653021276E3021272030212725282E30C8
:101220009D24ED00EB01EC010615652720302127F8
:1012300043302127C0241C25D701EC0F2429EB0AB9
:1012400004306B0203197B26851927290028861B89
:101250002A29162A061B37290F30C7001C25061B12
:101260003729C70B2E298A115C24EA268A152E30CD
:101270009D24ED001E24A308031D4829A208031D78
:10128000482933302102031848296527D8241D290D
:1012900037260330A1006930A0006D08A400322574
:1012A0002A252108A5002008A4005008A3004F0803
:1012B000A2004E08A1004D08A00053252308A70056
:1012C0002208A6002108A5002008A4004B30A30096
:1012D0007D30A2004130A100A030A0005325861A25
:1012E0009A291C25861A9A292108C200D3002C307D
:1012F000A8242008C200D2002D30A824E4256027AD
:1013000043302127783021273D3021273308303ED4
:1013100021273408303E21273508303E2127703000
:10132000212746302127EB241C2565275208A000E1
:101330005308A1002A252C309D24A5002D309D2482
:10134000A4002F25652743302127783021273E3000
:101350002127E4252C1CAE292D3021270130340211
:101360000318EB0101302F020318042A0130300268
:101370000318EF29013031020318EF29013032023E
:101380000318DC29013033020318C729CA2933089E
:10139000303E21273408303E21273508303E2127B2
:1013A0002C3021273608303E21272030212770306D
:1013B0002127463021271D293208303E21273308B6
:1013C000303E21273408303E21273508303E212782
:1013D0002030212770302127463021271D292F0852
:1013E000303E21272E3021273008303E212731087A
:1013F000303E21273208303E21272030212702307D
:101400002127463021271D292F08303E21272C3047
:1014100021273008303E21273108303E2127203057
:10142000212702302127463021271D290630900030
:10143000EB01EC01061565272030212746302127D6
:10144000C0241C25861F222A031783160130880119
:101450000230890103138312D030870030309D247D
:10146000F00031309D24EF00D701571C982A571DFA
:101470004C2A861A412AEF0A15306F020319EF032E
:10148000482A061B4A2A00306F020319EF0AEF03AD
:10149000D7144B2AD710562A861A502AF00A532AF4
:1014A000061B552AF003D714562AD7106C27633031
:1014B00021276F30212766302127663021273726E4
:1014C0007008A0007F30A4002F25E42557196A2A50
:1014D0003E306B2A203021272C1C702A2D302127EA
:1014E000FB26203021274630212737266F08A00011
:1014F000E425571D7D2A3E307E2A20302127FE26F6
:101500000F25D718352A861BAF2A6827F624571DC2
:10151000912A6F08C2003130A824861F8D2A5711E6
:10152000982A7008C2003030A824861F952A5715C3
:10153000861AA72A0F30C7001C25861AA72AC70BB0
:101540009C2A8A115C248A150830712757142B2392
:10155000EC0FAB2A7B26861AAF2AEB01EC015F2346
:101560006827E42546302127783021273E3021277F
:10157000BB23483021277A30212736084D02031D2E
:10158000EC013608CD00352AEB01EC018617652702
:1015900020302127503021275F3021274330212759
:1015A000C0243726CF01D0018F018E010C1CDC2A0C
:1015B0000C10CF0A0319D00A2B23061F1C25EC0F91
:1015C000E62AEB0A0F306B0203197B26851DE92AF8
:1015D000162A4023A101A0015430C6000530C200E4
:1015E000861AFA2AEB01EC013726CF01D0018F01D0
:1015F0008E01F02A10143E30C3000130C400C30B2A
:10160000FF2AC40BFF2A0C1C092BCF0A0319D00A8E
:101610000C10C60BFB2AC20BFB2A0C1C132B0C1044
:10162000CF0A0319D00A0F08A1000E08A0004F0826
:10163000A2005008A3006827E42550302127783005
:1016400021273E302127BB2336084D02031DEC0124
:101650003608CD00D62A6C27313021273A30212791
:10166000C2303627061B392B871F382B8713392B9F
:101670008717871F3D2B31303E2B34302127080040
:1016800057180800861B5E2B652720302127453020
:1016900021275330212752302127203021273E3067
:1016A00021271C25D701D601EB01EC0183168430DC
:1016B0009F0083120E3087008A115A280800963046
:1016C000C6001430C20037268F018E010C10101492
:1016D0007008C3000000C30B6A2B0B308A006F0830
:1016E000143C820700000000000000000000000021
:1016F00000000000000000000000000000000000EA
:101700000000000000000000000000000000443065
:10171000C3000230C400C30B8B2BC40B8B2B000007
:101720000C1C982BA20A0319A30A0C1000009E2B74
:101730000000000000000000000000008519A12B3F
:10174000C42A861F4023C60B872BC20B872B700829
:10175000C30000000000000000000000C30BA92B24
:1017600010100C1CB62BA20A0319A30A0F08A10023
:101770000E08A000080001302F020318CC2B013006
:1017800030020318D12B013031020318D62B01305F
:1017900032020318DD2BE22B823036272F08303E31
:1017A0002127833036273008303E212784303627E2
:1017B000203021273108303E212786303627320855
:1017C000303E2127873036273308303E212720300E
:1017D00021273408303E21273508303E212736089E
:1017E000303E2127203021270800DC30C600083099
:1017F000C20037260B1181010630C300C30BFE2B3C
:10180000A130C300C30B022C000000000B1D0D2CE7
:10181000A10A0319A20A0B11122C000000000000FB
:1018200000000000C60B002CC20B002C0108A00019
:101830000B1D1D2CA10A0319A20A0800F52322087A
:10184000CF002108CE002008CD000230A40053258F
:101850002A254F08A6004E08A5004D08A4003C25E7
:101860000310A30CA20CA10CA00C2A250530A40087
:1018700053252308D0002208CF002108CE002008DD
:10188000CD00080037260F30A0006E08A4003C25CC
:101890002108A5002008A4001F30A1009F30A0004F
:1018A00032252A252108A5002008A4005008A300FD
:1018B0004F08A2004E08A1004D08A00053252308A0
:1018C000A7002208A6002108A5002008A4004B308C
:1018D000A3007D30A2004130A100A030A00053251C
:1018E0002A250A30A40053252108C2002430A82448
:1018F0002008C2002530A824E42560274330212792
:10190000783021273D3021273308303E2127340805
:10191000303E21273508303E2127703021274630C0
:101920002127EB244B08C2002930A8244C08C20010
:101930002830A8241C2565270800031783128D0072
:1019400083168C130C1483120C08031383120800E3
:10195000031783168C18AA2C83128D00031383128D
:10196000420803178C0083168C130C158B1355300B
:101970008D00AA308D008C140C1103138312080003
:10198000203021274D302127653021277430212731
:10199000723021270800203021274C302127783051
:1019A00021272D3021272D3021272D3021270800F8
:1019B000203021274330212778302127203021274C
:1019C0004530212752302127523021274F302127FF
:1019D0005230212708002030212743302127613051
:1019E00021276C3021272E30212708002030212785
:1019F0005330212761302127763021276530212778
:101A000020302127453021274530212750302127FC
:101A1000523021274F3021274D3021270800B53083
:101A2000BB00AF30BC000D30BD00BB0B152DBC0B97
:101A3000152DBD0B152D08000430BB009D30BC00DA
:101A40000830BD00BB0B222DBC0B222DBD0B222D5F
:101A500000000800A401A501A601A7010800562660
:101A60000318080023082706B7001F2603102708BD
:101A70002306B71F803E0800B7014026031C5326EB
:101A8000031808002E263B261F30B80066262B0DB3
:101A900003181F26031C230D03180800B80B462D3E
:101AA000371843260800B701240825042604270414
:101AB000003C031C4026031C532603180800A80101
:101AC000A901AA01AB0166261F30B80066262708C7
:101AD0002B02031D752D26082A02031D752D2508CE
:101AE0002902031D752D24082802031C872D2408B4
:101AF000A8022508031C250FA9022608031C260F8F
:101B0000AA022708031C270FAB0203102014B80BEE
:101B1000662D371843260800B701402603106A26B1
:101B200027082B02031D9E2D26082A02031D752D52
:101B300025082902031D9E2D24082802031CA92D17
:101B4000A00FA92DA10FA92DA20FA92DA30A03193A
:101B50000800371843260800230D031808002E2616
:101B600037261030B800A80DA90DAA0DAB0DA40D95
:101B7000A50DA60DA80DA90DAA0DAB0DA40DA50DC3
:101B8000A60D0314A00DA10DA20D22082602031D0F
:101B9000CF2D21082502031DCF2D20082402031C70
:101BA000DC2D2008A4022108031C210FA502220815
:101BB000031C220FA602A0142010B80BB32D031093
:101BC000A20CA10CA00C0800B701402603180800C5
:101BD0006F262030B800A00DA10DA20DA30D363048
:101BE00084000A30B900800D0A300002031880001A
:101BF0008403B90BF32DB80BEB2D37182C140310FD
:101C00000800B7002030B8002C3084003708B90035
:101C10000A300310840A03188007800CB90B0A2EBF
:101C2000A30CA20CA10CA00CB80B042E0008FF3EC4
:101C3000031C230D031808002C1843260800240851
:101C4000A00725080318250FA10726080318260F4B
:101C5000A20727080318270FA30708002008A800D9
:101C60002108A9002208AA002308AB000800A4014B
:101C7000A501A601A701A001A101A201A3010800DD
:101C8000230D031C080023088039A009A109A2091B
:101C9000A309A00F502EA10F502EA20F502EA30A61
:101CA000B70A23070800270D031C080027088039FE
:101CB000A409A509A609A709A40F632EA50F632EE1
:101CC000A60F632EA70AB70A27070800A00DA10DCB
:101CD000A20DA30DA80DA90DAA0DAB0D0800AC0116
:101CE000AD01AE01AF01B001B101B201B301B40168
:101CF000B501B60108006527203021275030212783
:101D000057302127523021275F3021276F3021277C
:101D10006630212766302127DF30C300BB30C40086
:101D2000DC30C500C30B922E861E9F2E061F9F2EF1
:101D3000861F9F2EC40B922EC50B922E061165276F
:101D40000F25EB01EC01061508008316811783129D
:101D50003726A5309F000530C300C30BAD2E9F145E
:101D60009F18B02E1E08D30083161E088312D200BF
:101D70005308A1005208A000831681138312CE30AD
:101D8000362702302102031DC82E03302127FA2EE8
:101D900037265308A1005208A0000130A500E33007
:101DA000A4002F25A308031DD82E04302127FA2EC6
:101DB00037265308A1005208A0000130A500C73003
:101DC000A4002F25A308031DE82E05302127FA2E95
:101DD00037265308A1005208A0000130A500AB30FF
:101DE000A4002F25A308031DF82E06302127FA2E64
:101DF0000730212708003408303E21273508303EBF
:101E000021273608303E21272030212708000610E0
:101E100086107727772777273030BA00462789271B
:101E2000772789277727892777272030BA00462701
:101E300089278027283036270C303627063036276A
:101E40000800BA008316083086008312061446275D
:101E5000892746278927061006168616061786172D
:101E600080278316E830860083120800BA008316A4
:101E700008308600831206104627892746278927BF
:101E800080278316E8308600831208000612861227
:101E9000061386130310BA0D031886170310BA0D24
:101EA000031806170310BA0D031886160310BA0D8F
:101EB000031806160800803036270C303627080035
:101EC000C03036270C30362708006C2768270800FA
:101ED0005B2770275B2708006027702760270800B2
:101EE0001030C20020302127C20B722F0800F730BB
:101EF000BB001A30BC00BB0B7B2FBC0B7B2F080038
:101F00004930BB000230BC00BB0B842FBC0B842FBC
:101F1000080086140430BB00BB0B8C2F8610080011
:021F20000000BF
:1020000099205717D7125712F120F1200830870076
:10201000ED204308D8004208D900033043020319D9
:102020004E286430C700E920A520ED204308A10018
:102030004208A000061F72280930AB20A400B72078
:10204000A308031DA520E120DB20E520C70B1428F1
:10205000D5200A30A400C9208A150A128C250A1638
:102060008A11E520A5200330A5006930A4005E0890
:10207000A000DB20D520E120BD20D5200E30A5001A
:102080003C30A400C9208A150A128C250A168A1130
:102090002108DC002008DD000A12BA2BF1205713BA
:1020A000D71657128316213087008312F120ED20B6
:1020B0004308D8004208D9008316013087008312F4
:1020C000A5205808A1005908A0005F08A400BD2061
:1020D000D5202530A400C9202108DC002008DD001F
:1020E0000A12BA2B861B8028C3208A150A12F624EE
:1020F0000A168A112008C2000930B120861F7E28E6
:10210000CF20C3205A309F203E309F200A124827FC
:102110000A160930AB20A000CF20A5209920453019
:102120009F2045309F203E309F200A1248270A16E4
:1021300001280A128A156C278A110A1608000A1249
:102140008A1521278A110A1608000A128A153726CD
:102150008A110A1608000A128A159D248A110A1685
:1021600008000A128A15A8248A110A1608000A1201
:102170008A152F258A110A1608000A128A153C258D
:102180008A110A1608000A128A1568278A110A1687
:1021900008000A128A1553258A110A1608000A1225
:1021A0008A15E4258A110A1608000A128A152A25BA
:1021B0008A110A1608000A128A1532258A110A168F
:1021C00008000A1277240A1608000A1280240A1648
:1021D00008000A1272240A1608000A124C240A1671
:0A21E00008000A12B3240A160800D2
:02400E00C223CB
:02401000FF3F70
:104200007F0000007F0000007F0000000000000031
:1042100014000A00000000007F0000000000000001
:1042200064000000000000006400000000000000C6
:10423000000000000000000000000000000000007E
:1042400000000000000000001900640000000000F1
:10425000270010007F000000190064007F000000AC
:0842600052000A0000000000FA
:00000001FF
